:020000040800F2
:1000000000C0012019020008D9010008E901000818
:10001000F1010008F90100080102000800000000D9
:100020000000000000000000000000005D02000869
:1000300009020008000000005D0200085D020008DF
:100040005D0200085D0200085D0200085D02000814
:100050005D0200085D0200085D0200085D02000804
:100060005D0200085D0200085D0200085D020008F4
:100070005D0200085D0200085D0200085D020008E4
:100080005D0200085D0200085D020008000000003B
:100090000000000000000000000000005D020008F9
:1000A0005D0200085D0200085D0200085D020008B4
:1000B0005D0200085D0200085D0200085D020008A4
:1000C0005D0200085D0200085D0200085D02000894
:1000D0005D0200085D0200085D02000800000000EB
:1000E0005D0200085D0200085D02000800000000DB
:1000F0000000000000000000000000005D02000899
:10010000000000005D0200085D0200085D020008BA
:1001100000000000000000000000000000000000DF
:100120005D0200085D0200085D0200085D02000833
:100130005D02000800000000000000000000000058
:100140000000000000000000000000005D02000848
:100150005D0200085D0200085D0200085D02000803
:100160005D0200085D0200080000000000000000C1
:10017000000000000000000000000000000000007F
:10018000000000005D020008000000000000000008
:100190005D02000880B483B000AF0D4B7B600D4A58
:1001A0000C4B1B6843F0010313607B684FF48062C3
:1001B0001A607B6800225A607B684FF400629A6084
:1001C0007B680022DA607B6820229A61FEE700BF2C
:1001D000000002403038024080B400AF00BFBD468E
:1001E0005DF8047B704700BF80B400AFFEE700BF3E
:1001F00080B400AFFEE700BF80B400AFFEE700BFF1
:1002000080B400AFFEE700BF80B400AF00BFBD46C2
:100210005DF8047B704700BF002103E00A4B5B5888
:100220004350043109480A4B42189A42F6D3094A0E
:1002300002E0002342F8043B074B9A42F9D300F056
:100240000FF8FFF7A7FF7047C40300080000002065
:10025000000000200000002000000020FEE7000059
:1002600080B500AF164A164BD3F8883043F47003BC
:10027000C2F88830134A134B1B6843F00103136024
:10028000104B00229A600F4A0E4B1B6823F08473B8
:1002900023F4803313600B4B0B4A5A60094A094B15
:1002A0001B6823F480231360064B0022DA6000F001
:1002B0000DF8034B4FF000629A6000BF80BD00BF95
:1002C00000ED00E0003802401030002480B483B01C
:1002D00000AF00237B6000233B60364A354B1B6830
:1002E00043F480331360334B1B6803F400333B60EB
:1002F0007B6801337B603B68002B03D17B68B3F5DF
:10030000A04FF0D12B4B1B6803F40033002B02D01D
:1003100001233B6001E000233B603B68012B42D19D
:10032000244A244B1B6C43F080531364224A224B13
:100330001B6843F4404313601E4A1E4B9B68936046
:100340001C4A1C4B9B6843F400439360194A194BA9
:100350009B6843F4A0539360164B184A5A60154AA1
:10036000144B1B6843F08073136000BF114B1B6874
:1003700003F00073002BF9D0114B40F205721A60A4
:100380000C4A0C4B9B6823F003039360094A094B0A
:100390009B6843F00203936000BF064B9B6803F029
:1003A0000C03082BF9D100BF0C37BD465DF8047B68
:1003B000704700BF003802400070004019544007E9
:0403C000003C0240BB
:0403C400F8B500BFC9
:0403C800F8B500BFC5
:0400000508000219D4
:00000001FF
